{
  "contractName": "Kittycontract",
  "abi": [
    {
      "inputs": [
        {
          "internalType": "string",
          "name": "_Name",
          "type": "string"
        },
        {
          "internalType": "string",
          "name": "_Symbol",
          "type": "string"
        }
      ],
      "payable": false,
      "stateMutability": "nonpayable",
      "type": "constructor"
    },
    {
      "anonymous": false,
      "inputs": [
        {
          "indexed": true,
          "internalType": "address",
          "name": "Owner",
          "type": "address"
        },
        {
          "indexed": true,
          "internalType": "address",
          "name": "approvedTo",
          "type": "address"
        },
        {
          "indexed": true,
          "internalType": "uint256",
          "name": "tokenId",
          "type": "uint256"
        }
      ],
      "name": "Approval",
      "type": "event"
    },
    {
      "anonymous": false,
      "inputs": [
        {
          "indexed": true,
          "internalType": "address",
          "name": "owner",
          "type": "address"
        },
        {
          "indexed": true,
          "internalType": "address",
          "name": "operator",
          "type": "address"
        },
        {
          "indexed": false,
          "internalType": "bool",
          "name": "approved",
          "type": "bool"
        }
      ],
      "name": "ApprovalForAll",
      "type": "event"
    },
    {
      "anonymous": false,
      "inputs": [
        {
          "indexed": true,
          "internalType": "address",
          "name": "Owner",
          "type": "address"
        },
        {
          "indexed": false,
          "internalType": "address",
          "name": "operator",
          "type": "address"
        },
        {
          "indexed": false,
          "internalType": "bool",
          "name": "success",
          "type": "bool"
        }
      ],
      "name": "ApproveForAll",
      "type": "event"
    },
    {
      "anonymous": false,
      "inputs": [
        {
          "indexed": false,
          "internalType": "address",
          "name": "owner",
          "type": "address"
        },
        {
          "indexed": false,
          "internalType": "uint256",
          "name": "genes",
          "type": "uint256"
        },
        {
          "indexed": false,
          "internalType": "uint256",
          "name": "newKittenId",
          "type": "uint256"
        },
        {
          "indexed": false,
          "internalType": "uint256",
          "name": "mumId",
          "type": "uint256"
        },
        {
          "indexed": false,
          "internalType": "uint256",
          "name": "dadId",
          "type": "uint256"
        },
        {
          "indexed": false,
          "internalType": "uint256",
          "name": "generation",
          "type": "uint256"
        }
      ],
      "name": "Birth",
      "type": "event"
    },
    {
      "anonymous": false,
      "inputs": [
        {
          "indexed": true,
          "internalType": "address",
          "name": "oldOwner",
          "type": "address"
        },
        {
          "indexed": true,
          "internalType": "address",
          "name": "newOwner",
          "type": "address"
        },
        {
          "indexed": true,
          "internalType": "uint256",
          "name": "tokenId",
          "type": "uint256"
        }
      ],
      "name": "Transfer",
      "type": "event"
    },
    {
      "constant": true,
      "inputs": [],
      "name": "getContractOwner",
      "outputs": [
        {
          "internalType": "address",
          "name": "",
          "type": "address"
        }
      ],
      "payable": false,
      "stateMutability": "view",
      "type": "function"
    },
    {
      "constant": true,
      "inputs": [
        {
          "internalType": "bytes4",
          "name": "_interfaceId",
          "type": "bytes4"
        }
      ],
      "name": "supportsInterface",
      "outputs": [
        {
          "internalType": "bool",
          "name": "",
          "type": "bool"
        }
      ],
      "payable": false,
      "stateMutability": "pure",
      "type": "function"
    },
    {
      "constant": false,
      "inputs": [
        {
          "internalType": "address",
          "name": "_from",
          "type": "address"
        },
        {
          "internalType": "address",
          "name": "_to",
          "type": "address"
        },
        {
          "internalType": "uint256",
          "name": "_tokenId",
          "type": "uint256"
        },
        {
          "internalType": "bytes",
          "name": "_data",
          "type": "bytes"
        }
      ],
      "name": "safeTransferFrom",
      "outputs": [],
      "payable": false,
      "stateMutability": "nonpayable",
      "type": "function"
    },
    {
      "constant": false,
      "inputs": [
        {
          "internalType": "address",
          "name": "_from",
          "type": "address"
        },
        {
          "internalType": "address",
          "name": "_to",
          "type": "address"
        },
        {
          "internalType": "uint256",
          "name": "_tokenId",
          "type": "uint256"
        }
      ],
      "name": "safeTransferFrom",
      "outputs": [],
      "payable": false,
      "stateMutability": "nonpayable",
      "type": "function"
    },
    {
      "constant": false,
      "inputs": [
        {
          "internalType": "address",
          "name": "_from",
          "type": "address"
        },
        {
          "internalType": "address",
          "name": "_to",
          "type": "address"
        },
        {
          "internalType": "uint256",
          "name": "_tokenId",
          "type": "uint256"
        }
      ],
      "name": "transferFrom",
      "outputs": [],
      "payable": false,
      "stateMutability": "nonpayable",
      "type": "function"
    },
    {
      "constant": false,
      "inputs": [
        {
          "internalType": "address",
          "name": "_to",
          "type": "address"
        },
        {
          "internalType": "uint256",
          "name": "_tokenId",
          "type": "uint256"
        }
      ],
      "name": "transfer",
      "outputs": [],
      "payable": false,
      "stateMutability": "nonpayable",
      "type": "function"
    },
    {
      "constant": false,
      "inputs": [
        {
          "internalType": "uint256",
          "name": "_genes",
          "type": "uint256"
        }
      ],
      "name": "createKittyGen0",
      "outputs": [],
      "payable": false,
      "stateMutability": "nonpayable",
      "type": "function"
    },
    {
      "constant": false,
      "inputs": [
        {
          "internalType": "uint256",
          "name": "_dadId",
          "type": "uint256"
        },
        {
          "internalType": "uint256",
          "name": "_mumId",
          "type": "uint256"
        }
      ],
      "name": "breed",
      "outputs": [
        {
          "internalType": "uint256",
          "name": "",
          "type": "uint256"
        }
      ],
      "payable": false,
      "stateMutability": "nonpayable",
      "type": "function"
    },
    {
      "constant": true,
      "inputs": [
        {
          "internalType": "uint256",
          "name": "_newKittenId",
          "type": "uint256"
        }
      ],
      "name": "getKitty",
      "outputs": [
        {
          "internalType": "uint256",
          "name": "_genes",
          "type": "uint256"
        },
        {
          "internalType": "uint256",
          "name": "_mumId",
          "type": "uint256"
        },
        {
          "internalType": "uint256",
          "name": "_dadId",
          "type": "uint256"
        },
        {
          "internalType": "uint256",
          "name": "_birthTime",
          "type": "uint256"
        },
        {
          "internalType": "uint256",
          "name": "_generation",
          "type": "uint256"
        }
      ],
      "payable": false,
      "stateMutability": "view",
      "type": "function"
    },
    {
      "constant": true,
      "inputs": [
        {
          "internalType": "address",
          "name": "_owner",
          "type": "address"
        }
      ],
      "name": "getKittyByOwner",
      "outputs": [
        {
          "internalType": "uint256[]",
          "name": "",
          "type": "uint256[]"
        }
      ],
      "payable": false,
      "stateMutability": "view",
      "type": "function"
    },
    {
      "constant": true,
      "inputs": [
        {
          "internalType": "address",
          "name": "owner",
          "type": "address"
        }
      ],
      "name": "balanceOf",
      "outputs": [
        {
          "internalType": "uint256",
          "name": "balance",
          "type": "uint256"
        }
      ],
      "payable": false,
      "stateMutability": "view",
      "type": "function"
    },
    {
      "constant": true,
      "inputs": [],
      "name": "totalSupply",
      "outputs": [
        {
          "internalType": "uint256",
          "name": "total",
          "type": "uint256"
        }
      ],
      "payable": false,
      "stateMutability": "view",
      "type": "function"
    },
    {
      "constant": true,
      "inputs": [],
      "name": "name",
      "outputs": [
        {
          "internalType": "string",
          "name": "tokenName",
          "type": "string"
        }
      ],
      "payable": false,
      "stateMutability": "view",
      "type": "function"
    },
    {
      "constant": true,
      "inputs": [],
      "name": "symbol",
      "outputs": [
        {
          "internalType": "string",
          "name": "tokenSymbol",
          "type": "string"
        }
      ],
      "payable": false,
      "stateMutability": "view",
      "type": "function"
    },
    {
      "constant": true,
      "inputs": [
        {
          "internalType": "uint256",
          "name": "tokenId",
          "type": "uint256"
        }
      ],
      "name": "ownerOf",
      "outputs": [
        {
          "internalType": "address",
          "name": "owner",
          "type": "address"
        }
      ],
      "payable": false,
      "stateMutability": "view",
      "type": "function"
    },
    {
      "constant": false,
      "inputs": [
        {
          "internalType": "address",
          "name": "to",
          "type": "address"
        },
        {
          "internalType": "uint256",
          "name": "tokenId",
          "type": "uint256"
        }
      ],
      "name": "approve",
      "outputs": [],
      "payable": false,
      "stateMutability": "nonpayable",
      "type": "function"
    },
    {
      "constant": true,
      "inputs": [
        {
          "internalType": "uint256",
          "name": "_tokenId",
          "type": "uint256"
        }
      ],
      "name": "getApproved",
      "outputs": [
        {
          "internalType": "address",
          "name": "",
          "type": "address"
        }
      ],
      "payable": false,
      "stateMutability": "view",
      "type": "function"
    },
    {
      "constant": false,
      "inputs": [
        {
          "internalType": "address",
          "name": "operator",
          "type": "address"
        },
        {
          "internalType": "bool",
          "name": "approved",
          "type": "bool"
        }
      ],
      "name": "setApprovalForAll",
      "outputs": [],
      "payable": false,
      "stateMutability": "nonpayable",
      "type": "function"
    },
    {
      "constant": true,
      "inputs": [
        {
          "internalType": "address",
          "name": "owner",
          "type": "address"
        },
        {
          "internalType": "address",
          "name": "operator",
          "type": "address"
        }
      ],
      "name": "isApprovedForAll",
      "outputs": [
        {
          "internalType": "bool",
          "name": "",
          "type": "bool"
        }
      ],
      "payable": false,
      "stateMutability": "view",
      "type": "function"
    }
  ],
  "bytecode": "0x60806040526000600860006101000a81548167ffffffffffffffff021916908367ffffffffffffffff1602179055503480156200003b57600080fd5b5060405162002e1138038062002e11833981810160405260408110156200006157600080fd5b81019080805160405193929190846401000000008211156200008257600080fd5b838201915060208201858111156200009957600080fd5b8251866001820283011164010000000082111715620000b757600080fd5b8083526020830192505050908051906020019080838360005b83811015620000ed578082015181840152602081019050620000d0565b50505050905090810190601f1680156200011b5780820380516001836020036101000a031916815260200191505b50604052602001805160405193929190846401000000008211156200013f57600080fd5b838201915060208201858111156200015657600080fd5b82518660018202830111640100000000821117156200017457600080fd5b8083526020830192505050908051906020019080838360005b83811015620001aa5780820151818401526020810190506200018d565b50505050905090810190601f168015620001d85780820380516001836020036101000a031916815260200191505b50604052505050336000806101000a81548173ffffffffffffffffffffffffffffffffffffffff021916908373ffffffffffffffffffffffffffffffffffffffff16021790555060068054600181600116156101000203166002900480601f016020809104026020016040519081016040528092919081815260200182805460018160011615610100020316600290048015620002b95780601f106200028d57610100808354040283529160200191620002b9565b820191906000526020600020905b8154815290600101906020018083116200029b57829003601f168201915b5050505050915060078054600181600116156101000203166002900480601f0160208091040260200160405190810160405280929190818152602001828054600181600116156101000203166002900480156200035a5780601f106200032e576101008083540402835291602001916200035a565b820191906000526020600020905b8154815290600101906020018083116200033c57829003601f168201915b505050505090505050612a9e80620003736000396000f3fe608060405234801561001057600080fd5b50600436106101215760003560e01c806370a08231116100ad578063b88d4fde11610071578063b88d4fde1461068e578063d5a776ca14610751578063d9ecad7b1461077f578063e985e9c5146107cb578063e98b7f4d1461084757610121565b806370a082311461047c57806395d89b41146104d457806395e6c62f14610557578063a22cb465146105f0578063a9059cbb1461064057610121565b806318160ddd116100f457806318160ddd146102ca57806323b872dd146102e857806342842e0e14610356578063442890d5146103c45780636352211e1461040e57610121565b806301ffc9a71461012657806306fdde031461018b578063081812fc1461020e578063095ea7b31461027c575b600080fd5b6101716004803603602081101561013c57600080fd5b8101908080357bffffffffffffffffffffffffffffffffffffffffffffffffffffffff191690602001909291905050506108a5565b604051808215151515815260200191505060405180910390f35b610193610945565b6040518080602001828103825283818151815260200191508051906020019080838360005b838110156101d35780820151818401526020810190506101b8565b50505050905090810190601f1680156102005780820380516001836020036101000a031916815260200191505b509250505060405180910390f35b61023a6004803603602081101561022457600080fd5b81019080803590602001909291905050506109ea565b604051808273ffffffffffffffffffffffffffffffffffffffff1673ffffffffffffffffffffffffffffffffffffffff16815260200191505060405180910390f35b6102c86004803603604081101561029257600080fd5b81019080803573ffffffffffffffffffffffffffffffffffffffff16906020019092919080359060200190929190505050610aa2565b005b6102d2610c8f565b6040518082815260200191505060405180910390f35b610354600480360360608110156102fe57600080fd5b81019080803573ffffffffffffffffffffffffffffffffffffffff169060200190929190803573ffffffffffffffffffffffffffffffffffffffff16906020019092919080359060200190929190505050610c9f565b005b6103c26004803603606081101561036c57600080fd5b81019080803573ffffffffffffffffffffffffffffffffffffffff169060200190929190803573ffffffffffffffffffffffffffffffffffffffff16906020019092919080359060200190929190505050610d2d565b005b6103cc610d74565b604051808273ffffffffffffffffffffffffffffffffffffffff1673ffffffffffffffffffffffffffffffffffffffff16815260200191505060405180910390f35b61043a6004803603602081101561042457600080fd5b8101908080359060200190929190505050610d9d565b604051808273ffffffffffffffffffffffffffffffffffffffff1673ffffffffffffffffffffffffffffffffffffffff16815260200191505060405180910390f35b6104be6004803603602081101561049257600080fd5b81019080803573ffffffffffffffffffffffffffffffffffffffff169060200190929190505050610e55565b6040518082815260200191505060405180910390f35b6104dc610e9e565b6040518080602001828103825283818151815260200191508051906020019080838360005b8381101561051c578082015181840152602081019050610501565b50505050905090810190601f1680156105495780820380516001836020036101000a031916815260200191505b509250505060405180910390f35b6105996004803603602081101561056d57600080fd5b81019080803573ffffffffffffffffffffffffffffffffffffffff169060200190929190505050610f43565b6040518080602001828103825283818151815260200191508051906020019060200280838360005b838110156105dc5780820151818401526020810190506105c1565b505050509050019250505060405180910390f35b61063e6004803603604081101561060657600080fd5b81019080803573ffffffffffffffffffffffffffffffffffffffff169060200190929190803515159060200190929190505050610fda565b005b61068c6004803603604081101561065657600080fd5b81019080803573ffffffffffffffffffffffffffffffffffffffff1690602001909291908035906020019092919050505061108b565b005b61074f600480360360808110156106a457600080fd5b81019080803573ffffffffffffffffffffffffffffffffffffffff169060200190929190803573ffffffffffffffffffffffffffffffffffffffff169060200190929190803590602001909291908035906020019064010000000081111561070b57600080fd5b82018360208201111561071d57600080fd5b8035906020019184600183028401116401000000008311171561073f57600080fd5b909192939192939050505061125b565b005b61077d6004803603602081101561076757600080fd5b81019080803590602001909291905050506112b3565b005b6107b56004803603604081101561079557600080fd5b810190808035906020019092919080359060200190929190505050611394565b6040518082815260200191505060405180910390f35b61082d600480360360408110156107e157600080fd5b81019080803573ffffffffffffffffffffffffffffffffffffffff169060200190929190803573ffffffffffffffffffffffffffffffffffffffff169060200190929190505050611608565b604051808215151515815260200191505060405180910390f35b6108736004803603602081101561085d57600080fd5b810190808035906020019092919050505061161c565b604051808681526020018581526020018481526020018381526020018281526020019550505050505060405180910390f35b60006301ffc9a760e01b7bffffffffffffffffffffffffffffffffffffffffffffffffffffffff1916827bffffffffffffffffffffffffffffffffffffffffffffffffffffffff1916148061093e57506380ac58cd60e01b7bffffffffffffffffffffffffffffffffffffffffffffffffffffffff1916827bffffffffffffffffffffffffffffffffffffffffffffffffffffffff1916145b9050919050565b606060068054600181600116156101000203166002900480601f0160208091040260200160405190810160405280929190818152602001828054600181600116156101000203166002900480156109dd5780601f106109b2576101008083540402835291602001916109dd565b820191906000526020600020905b8154815290600101906020018083116109c057829003601f168201915b5050505050905080905090565b60006109f582611747565b610a67576040517f08c379a00000000000000000000000000000000000000000000000000000000081526004018080602001828103825260118152602001807f4e6f2073756368206b697474792069642100000000000000000000000000000081525060200191505060405180910390fd5b6003600083815260200190815260200160002060009054906101000a900473ffffffffffffffffffffffffffffffffffffffff169050919050565b610aab81611747565b610b1d576040517f08c379a00000000000000000000000000000000000000000000000000000000081526004018080602001828103825260118152602001807f4e6f2073756368206b697474792069642100000000000000000000000000000081525060200191505060405180910390fd5b610b273382611758565b80610b6b5750610b6a6002600083815260200190815260200160002060009054906101000a900473ffffffffffffffffffffffffffffffffffffffff16336117c4565b5b610bdd576040517f08c379a000000000000000000000000000000000000000000000000000000000815260040180806020018281038252601e8152602001807f4e6f7420746f6b656e206f776e65722c206e6f72206f70657261746f7221000081525060200191505060405180910390fd5b600073ffffffffffffffffffffffffffffffffffffffff168273ffffffffffffffffffffffffffffffffffffffff161415610c80576040517f08c379a000000000000000000000000000000000000000000000000000000000815260040180806020018281038252601e8152602001807f3020616464726573732063616e6e6f7420626520617070726f7665642021000081525060200191505060405180910390fd5b610c8b338383611858565b5050565b6000600980549050905080905090565b610cab338484846118ee565b610d1d576040517f08c379a000000000000000000000000000000000000000000000000000000000815260040180806020018281038252601a8152602001807f4e65697468657220617070726f766564206e6f72204f776e657200000000000081525060200191505060405180910390fd5b610d28838383611af2565b505050565b610d6f338484846040518060400160405280600181526020017f2000000000000000000000000000000000000000000000000000000000000000815250611dc6565b505050565b60008060009054906101000a900473ffffffffffffffffffffffffffffffffffffffff16905090565b6000610da882611747565b610e1a576040517f08c379a00000000000000000000000000000000000000000000000000000000081526004018080602001828103825260158152602001807f546f6b656e20646f6573206e6f7420657869737421000000000000000000000081525060200191505060405180910390fd5b6002600083815260200190815260200160002060009054906101000a900473ffffffffffffffffffffffffffffffffffffffff169050919050565b6000600160008373ffffffffffffffffffffffffffffffffffffffff1673ffffffffffffffffffffffffffffffffffffffff168152602001908152602001600020549050919050565b606060078054600181600116156101000203166002900480601f016020809104026020016040519081016040528092919081815260200182805460018160011615610100020316600290048015610f365780601f10610f0b57610100808354040283529160200191610f36565b820191906000526020600020905b815481529060010190602001808311610f1957829003601f168201915b5050505050905080905090565b6060600560008373ffffffffffffffffffffffffffffffffffffffff1673ffffffffffffffffffffffffffffffffffffffff168152602001908152602001600020805480602002602001604051908101604052809291908181526020018280548015610fce57602002820191906000526020600020905b815481526020019060010190808311610fba575b50505050509050919050565b3373ffffffffffffffffffffffffffffffffffffffff168273ffffffffffffffffffffffffffffffffffffffff16141561107c576040517f08c379a000000000000000000000000000000000000000000000000000000000815260040180806020018281038252601d8152602001807f4f70657261746f722063616e6e6f74206265206d73672e73656e64657200000081525060200191505060405180910390fd5b611087338383611e57565b5050565b600073ffffffffffffffffffffffffffffffffffffffff168273ffffffffffffffffffffffffffffffffffffffff16141561112e576040517f08c379a000000000000000000000000000000000000000000000000000000000815260040180806020018281038252601c8152602001807f526563697069656e7427732061646472657373206973207a65726f210000000081525060200191505060405180910390fd5b3073ffffffffffffffffffffffffffffffffffffffff168273ffffffffffffffffffffffffffffffffffffffff1614156111d0576040517f08c379a000000000000000000000000000000000000000000000000000000000815260040180806020018281038252601e8152602001807f526563697069656e7420697320636f6e7472616374206164647265737321000081525060200191505060405180910390fd5b6111da3382611758565b61124c576040517f08c379a000000000000000000000000000000000000000000000000000000000815260040180806020018281038252601a8152602001807f53656e646572206973206e6f7420746f6b656e206f776e65722100000000000081525060200191505060405180910390fd5b611257338383611af2565b5050565b6112ac3386868686868080601f016020809104026020016040519081016040528093929190818152602001838380828437600081840152601f19601f82011690508083019250505050505050611dc6565b5050505050565b6000809054906101000a900473ffffffffffffffffffffffffffffffffffffffff1673ffffffffffffffffffffffffffffffffffffffff163373ffffffffffffffffffffffffffffffffffffffff161461130c57600080fd5b6101f4600860009054906101000a900467ffffffffffffffff1667ffffffffffffffff161061133a57600080fd5b6008600081819054906101000a900467ffffffffffffffff168092919060010191906101000a81548167ffffffffffffffff021916908367ffffffffffffffff1602179055505061139060008083600033611f76565b5050565b60006113d5336002600085815260200190815260200160002060009054906101000a900473ffffffffffffffffffffffffffffffffffffffff1633856118ee565b611447576040517f08c379a000000000000000000000000000000000000000000000000000000000815260040180806020018281038252601f8152602001807f4d75737420686176652061636365737320746f206d6f7468657220636174210081525060200191505060405180910390fd5b611486336002600086815260200190815260200160002060009054906101000a900473ffffffffffffffffffffffffffffffffffffffff1633866118ee565b6114f8576040517f08c379a000000000000000000000000000000000000000000000000000000000815260040180806020018281038252601f8152602001807f4d75737420686176652061636365737320746f2066617468657220636174210081525060200191505060405180910390fd5b60006009838154811061150757fe5b906000526020600020906002020160010160109054906101000a900461ffff1661ffff16905060006009858154811061153c57fe5b906000526020600020906002020160010160109054906101000a900461ffff1661ffff16905060006115aa6009878154811061157457fe5b9060005260206000209060020201600001546009878154811061159357fe5b906000526020600020906002020160000154612169565b905060006115e760016115d960026115cb87896122eb90919063ffffffff16565b61237390919063ffffffff16565b6122eb90919063ffffffff16565b905060006115f88789858533611f76565b9050809550505050505092915050565b600061161483836117c4565b905092915050565b600080600080600061162d86611747565b61169f576040517f08c379a00000000000000000000000000000000000000000000000000000000081526004018080602001828103825260118152602001807f4e6f2073756368206b697474792069642100000000000000000000000000000081525060200191505060405180910390fd5b6000600987815481106116ae57fe5b906000526020600020906002020190508060000154955080600101600c9054906101000a900463ffffffff1663ffffffff1693508060010160089054906101000a900463ffffffff1663ffffffff1694508060010160109054906101000a900461ffff1661ffff1691508060010160009054906101000a900467ffffffffffffffff1667ffffffffffffffff1692505091939590929450565b600060098054905082109050919050565b60008273ffffffffffffffffffffffffffffffffffffffff166002600084815260200190815260200160002060009054906101000a900473ffffffffffffffffffffffffffffffffffffffff1673ffffffffffffffffffffffffffffffffffffffff1614905092915050565b6000600460008473ffffffffffffffffffffffffffffffffffffffff1673ffffffffffffffffffffffffffffffffffffffff16815260200190815260200160002060008373ffffffffffffffffffffffffffffffffffffffff1673ffffffffffffffffffffffffffffffffffffffff16815260200190815260200160002060009054906101000a900460ff16905092915050565b6003600082815260200190815260200160002060009054906101000a900473ffffffffffffffffffffffffffffffffffffffff169150808273ffffffffffffffffffffffffffffffffffffffff168473ffffffffffffffffffffffffffffffffffffffff167f8c5be1e5ebec7d5bd14f71427d1e84f3dd0314c0f7b2291e5b200ac8c7c3b92560405160405180910390a4505050565b60008073ffffffffffffffffffffffffffffffffffffffff168373ffffffffffffffffffffffffffffffffffffffff161415611992576040517f08c379a00000000000000000000000000000000000000000000000000000000081526004018080602001828103825260198152602001807f43616e6e6f7420617070726f766520616464726573732830290000000000000081525060200191505060405180910390fd5b61199c8483611758565b611a0e576040517f08c379a000000000000000000000000000000000000000000000000000000000815260040180806020018281038252601a8152602001807f53656e646572206973206e6f7420746f6b656e206f776e65722100000000000081525060200191505060405180910390fd5b611a1782611747565b611a89576040517f08c379a00000000000000000000000000000000000000000000000000000000081526004018080602001828103825260118152602001807f4e6f2073756368206b697474792069642100000000000000000000000000000081525060200191505060405180910390fd5b611a938583611758565b80611aa45750611aa385836123bd565b5b80611ae85750611ae76002600084815260200190815260200160002060009054906101000a900473ffffffffffffffffffffffffffffffffffffffff16866117c4565b5b9050949350505050565b600073ffffffffffffffffffffffffffffffffffffffff168373ffffffffffffffffffffffffffffffffffffffff1614611c5c57600160008473ffffffffffffffffffffffffffffffffffffffff1673ffffffffffffffffffffffffffffffffffffffff1681526020019081526020016000206000815480929190600190039190505550600560008473ffffffffffffffffffffffffffffffffffffffff1673ffffffffffffffffffffffffffffffffffffffff16815260200190815260200160002073__ArrayUtils____________________________6359b4521f9091836040518363ffffffff1660e01b8152600401808381526020018281526020019250505060006040518083038186803b158015611c0d57600080fd5b505af4158015611c21573d6000803e3d6000fd5b505050506003600082815260200190815260200160002060006101000a81549073ffffffffffffffffffffffffffffffffffffffff02191690555b600160008373ffffffffffffffffffffffffffffffffffffffff1673ffffffffffffffffffffffffffffffffffffffff16815260200190815260200160002060008154809291906001019190505550816002600083815260200190815260200160002060006101000a81548173ffffffffffffffffffffffffffffffffffffffff021916908373ffffffffffffffffffffffffffffffffffffffff160217905550600560008373ffffffffffffffffffffffffffffffffffffffff1673ffffffffffffffffffffffffffffffffffffffff168152602001908152602001600020819080600181540180825580915050906001820390600052602060002001600090919290919091505550808273ffffffffffffffffffffffffffffffffffffffff168473ffffffffffffffffffffffffffffffffffffffff167fddf252ad1be2c89b69c2b068fc378daa952ba7f163c4a11628f55a4df523b3ef60405160405180910390a4505050565b611dd2858585856118ee565b611e44576040517f08c379a000000000000000000000000000000000000000000000000000000000815260040180806020018281038252601f8152602001807f4e6f20617574686f7269747920746f207472616e7366657220746f6b656e210081525060200191505060405180910390fd5b611e5084848484612429565b5050505050565b80600460008573ffffffffffffffffffffffffffffffffffffffff1673ffffffffffffffffffffffffffffffffffffffff16815260200190815260200160002060008473ffffffffffffffffffffffffffffffffffffffff1673ffffffffffffffffffffffffffffffffffffffff16815260200190815260200160002060006101000a81548160ff0219169083151502179055503373ffffffffffffffffffffffffffffffffffffffff167f4ab86a02a3a55558db32d0e491b45a209c8310036f6e6d4a7195067e1d2b83848383604051808373ffffffffffffffffffffffffffffffffffffffff1673ffffffffffffffffffffffffffffffffffffffff168152602001821515151581526020019250505060405180910390a2505050565b6000611f806129ad565b6040518060a001604052808681526020014267ffffffffffffffff1681526020018863ffffffff1681526020018763ffffffff1681526020018561ffff16815250905060006120b26001600984908060018154018082558091505090600182039060005260206000209060020201600090919290919091506000820151816000015560208201518160010160006101000a81548167ffffffffffffffff021916908367ffffffffffffffff16021790555060408201518160010160086101000a81548163ffffffff021916908363ffffffff160217905550606082015181600101600c6101000a81548163ffffffff021916908363ffffffff16021790555060808201518160010160106101000a81548161ffff021916908361ffff160217905550505061244f90919063ffffffff16565b90507fa2950fd8c03e7518275ee57e05ca76c671969b5445b12b1aeea4b0b30195e5df8487838b8b8a604051808773ffffffffffffffffffffffffffffffffffffffff1673ffffffffffffffffffffffffffffffffffffffff168152602001868152602001858152602001848152602001838152602001828152602001965050505050505060405180910390a161215b6000858360405180602001604052806000815250612429565b809250505095945050505050565b60006121736129f6565b60006008905060006121906101004261249990919063ffffffff16565b90506000600190505b60808111612269576121b560018461244f90919063ffffffff16565b92506000818360ff1616146121f5576121d860648761249990919063ffffffff16565b60ff168484600881106121e757fe5b602002018181525050612222565b61220960648861249990919063ffffffff16565b60ff1684846008811061221857fe5b6020020181815250505b61223660648761237390919063ffffffff16565b955061224c60648861237390919063ffffffff16565b96506122626002826124e390919063ffffffff16565b9050612199565b6000831461227357fe5b6008801461227d57fe5b60008091505b60088210156122dd576122af85836008811061229b57fe5b6020020151826122eb90919063ffffffff16565b9050600782146122d0576122cd6064826124e390919063ffffffff16565b90505b8180600101925050612283565b809550505050505092915050565b600080828401905083811015612369576040517f08c379a000000000000000000000000000000000000000000000000000000000815260040180806020018281038252601b8152602001807f536166654d6174683a206164646974696f6e206f766572666c6f77000000000081525060200191505060405180910390fd5b8091505092915050565b60006123b583836040518060400160405280601a81526020017f536166654d6174683a206469766973696f6e206279207a65726f000000000000815250612569565b905092915050565b60008273ffffffffffffffffffffffffffffffffffffffff166003600084815260200190815260200160002060009054906101000a900473ffffffffffffffffffffffffffffffffffffffff1673ffffffffffffffffffffffffffffffffffffffff1614905092915050565b6124358484848461262f565b61243e57600080fd5b612449848484611af2565b50505050565b600061249183836040518060400160405280601e81526020017f536166654d6174683a207375627472616374696f6e206f766572666c6f770000815250612813565b905092915050565b60006124db83836040518060400160405280601881526020017f536166654d6174683a206d6f64756c6f206279207a65726f00000000000000008152506128d3565b905092915050565b6000808314156124f65760009050612563565b600082840290508284828161250757fe5b041461255e576040517f08c379a0000000000000000000000000000000000000000000000000000000008152600401808060200182810382526021815260200180612a496021913960400191505060405180910390fd5b809150505b92915050565b60008083118290612615576040517f08c379a00000000000000000000000000000000000000000000000000000000081526004018080602001828103825283818151815260200191508051906020019080838360005b838110156125da5780820151818401526020810190506125bf565b50505050905090810190601f1680156126075780820380516001836020036101000a031916815260200191505b509250505060405180910390fd5b50600083858161262157fe5b049050809150509392505050565b600061263a84612994565b612647576001905061280b565b60008473ffffffffffffffffffffffffffffffffffffffff1663150b7a02338887876040518563ffffffff1660e01b8152600401808573ffffffffffffffffffffffffffffffffffffffff1673ffffffffffffffffffffffffffffffffffffffff1681526020018473ffffffffffffffffffffffffffffffffffffffff1673ffffffffffffffffffffffffffffffffffffffff16815260200183815260200180602001828103825283818151815260200191508051906020019080838360005b83811015612722578082015181840152602081019050612707565b50505050905090810190601f16801561274f5780820380516001836020036101000a031916815260200191505b5095505050505050602060405180830381600087803b15801561277157600080fd5b505af1158015612785573d6000803e3d6000fd5b505050506040513d602081101561279b57600080fd5b810190808051906020019092919050505090506040518080612a1a602f9139602f01905060405180910390207bffffffffffffffffffffffffffffffffffffffffffffffffffffffff1916817bffffffffffffffffffffffffffffffffffffffffffffffffffffffff1916149150505b949350505050565b60008383111582906128c0576040517f08c379a00000000000000000000000000000000000000000000000000000000081526004018080602001828103825283818151815260200191508051906020019080838360005b8381101561288557808201518184015260208101905061286a565b50505050905090810190601f1680156128b25780820380516001836020036101000a031916815260200191505b509250505060405180910390fd5b5060008385039050809150509392505050565b6000808314158290612980576040517f08c379a00000000000000000000000000000000000000000000000000000000081526004018080602001828103825283818151815260200191508051906020019080838360005b8381101561294557808201518184015260208101905061292a565b50505050905090810190601f1680156129725780820380516001836020036101000a031916815260200191505b509250505060405180910390fd5b5082848161298a57fe5b0690509392505050565b600080823b905060008163ffffffff1611915050919050565b6040518060a0016040528060008152602001600067ffffffffffffffff168152602001600063ffffffff168152602001600063ffffffff168152602001600061ffff1681525090565b60405180610100016040528060089060208202803883398082019150509050509056fe6f6e455243373231526563656976656428616464726573732c616464726573732c75696e743235362c627974657329536166654d6174683a206d756c7469706c69636174696f6e206f766572666c6f77a265627a7a723158208a5b34928ebd4ce48d02c898d25d24d22a1fb6b58d27f5ea97b1fc44d23907e264736f6c634300050c0032",
  "source": "pragma solidity 0.5.12;\nimport \"./IERC721.sol\";\nimport \"./utils/SafeMath.sol\";\nimport \"./IERC721Receiver.sol\";\nimport \"./Ownable.sol\";\nimport \"./utils/ArrayUtils.sol\";\n\n\ncontract Kittycontract is IERC721, Ownable {\n\nusing SafeMath for uint256;\nusing ArrayUtils for uint256[];\n\nconstructor(string memory _Name, string memory _Symbol) public {\n        _Name = Name;\n        _Symbol = Symbol;\n    }\n\n\n\n//events\nevent Birth(\n  address owner,\n  uint256 genes,\n  uint256 newKittenId,\n  uint256 mumId,\n  uint256 dadId,\n  uint256 generation);\n\nevent Transfer(address indexed oldOwner, address indexed newOwner, uint256 indexed tokenId);\nevent Approval(address indexed Owner, address indexed approvedTo, uint256 indexed tokenId);\nevent ApproveForAll(address indexed Owner, address operator, bool success);\n\n//Struct- it gets stored in storage on EVM\nstruct Cat {\n    uint256 genes;\n    uint64 birthTime;\n    uint32 mumId;\n    uint32 dadId;\n    uint16 generation;\n    }\n\n//Mappings\n//       owner    number of Cats\nmapping(address => uint256) private tokenOwnershipCount;\n//      tokenId     owner\nmapping(uint256 => address) private ownershipCertificate;\n// approval mapping\nmapping(uint256 => address) private kittyIndexToApprove;\n// approval all (operator) mapping\n//[MYAADDR][OPERATORADDR] => TRUE/FALSE;\nmapping(address => mapping(address => bool)) private _operatorApprovals;\n//      Owner      Array of Owner's All Kitty Id's\nmapping(address => uint256[]) private _ownersKittyIds;\n\n\n//State variables\n\nstring private  Name;\nstring private Symbol;\nuint256 private constant CREATION_LIMIT_GEN0 = 500;\nuint64 private  gen0Counter = 0;\nbytes4 internal constant MAGIC_ERC721_RECEIVED = bytes4(keccak256(\"onERC721Received(address,address,uint256,bytes)\"));\nbytes4 private constant _INTERFACE_ID_ERC721 = 0x80ac58cd;\nbytes4 private constant _INTERFACE_ID_ERC165 = 0x01ffc9a7;\n\n//arrays- stored in storage on EVM\nCat[] private cats;\n\n//##############################################################################################################\n//FUNCTIONS START HERE :\n//Function when called from external contract returns whether this contract support IERC721 or IERC165 standard?\nfunction supportsInterface(bytes4 _interfaceId) public pure returns(bool) {\n  return ( _interfaceId == _INTERFACE_ID_ERC165 || _interfaceId == _INTERFACE_ID_ERC721);\n}\n\n// SAFE TRANSFER FUNCTIONS\n//Function executing an External Call from another User/ Contract(without Data):\nfunction safeTransferFrom(address _from, address _to, uint256 _tokenId) external {\n  _safeTransferFrom(msg.sender, _from, _to, _tokenId, \" \");\n}\n\n//Function executing an Public Call which then goes through external Interface(called with @param bytes calldata _data):\nfunction safeTransferFrom(address _from, address _to, uint256 _tokenId, bytes calldata _data) external {\n  _safeTransferFrom(msg.sender, _from, _to, _tokenId, _data);\n}\n\nfunction _safeTransferFrom(address sender, address from, address to, uint256 tokenId, bytes memory data) internal {\n  require(isApprovedOrOwner(sender, from, to, tokenId),\"No authority to transfer token!\");\n  _safeTransfer(from, to, tokenId, data);\n}\n\n//Internal safeTransfer Function\nfunction _safeTransfer(address _from, address _to, uint256 _tokenId, bytes memory _data) internal {\n  require( _checkERC721Support(_from, _to, _tokenId, _data) );\n  _transfer(_from, _to, _tokenId);\n}\n\n//Function executing an External Call from another User/ Contract:\nfunction transferFrom(address _from, address _to, uint256 _tokenId) external {\n  require(isApprovedOrOwner(msg.sender, _from, _to, _tokenId), \"Neither approved nor Owner\");\n  _transfer(_from, _to, _tokenId);\n\n}\n\n//Function executing an External Call from another User/ Contract:\nfunction transfer(address _to, uint256 _tokenId) external {\n  require(_to != address(0), \"Recipient's address is zero!\");\n  require(_to != address(this), \"Recipient is contract address!\");\n  require(_isOwner(msg.sender, _tokenId), \"Sender is not token owner!\");\n\n  _transfer(msg.sender, _to, _tokenId);\n}\n\n//Actual transfer of the token happens from this below Internal Function:\nfunction _transfer(address _from, address _to, uint256 _tokenId) internal {\n\n  if(_from != address(0)){\n    tokenOwnershipCount[_from]-- ;\n    _ownersKittyIds[_from].removeFrom(_tokenId);\n    delete(kittyIndexToApprove[_tokenId]);\n  }\n  tokenOwnershipCount[_to]++ ;\n  ownershipCertificate[_tokenId] = _to;\n  _ownersKittyIds[_to].push(_tokenId);\n  //Event Transfer to be emitted now :\n  emit Transfer(_from, _to, _tokenId);\n}\n\n\n//##########################################################################################################\n\n\n\n//BASIC CAT CREATION, BREEDING & GETTER FUNCTIONS\nfunction createKittyGen0(uint256 _genes) public onlyOwner {\n  require(gen0Counter < CREATION_LIMIT_GEN0);\n  gen0Counter++;\n  _createKitty(0,0, _genes, 0, msg.sender);\n\n}\n\nfunction breed(uint256 _dadId, uint256 _mumId) public returns(uint256) {\n  // Ensure that the breeder is owner or guardian of parent cats\n  require(isApprovedOrOwner(msg.sender,ownershipCertificate[_mumId],msg.sender,_mumId),\"Must have access to mother cat!\");\n  require(isApprovedOrOwner(msg.sender,ownershipCertificate[_dadId],msg.sender,_dadId),\"Must have access to father cat!\");\n\n\n  //( uint256 _dadDna,,,,, uint256 dadGeneration) = getKitty(_dadId);\n  //( uint256 _mumDna,,,,, uint256 mumGeneration) = getKitty(_mumId);\n  uint256 mumGen = cats[_mumId].generation;\n  uint256 dadGen = cats[_dadId].generation;\n  uint256 newDna = _mixDna(cats[_dadId].genes, cats[_mumId].genes);\n\n  uint256 kidGen = mumGen.add(dadGen).div(2).add(1);\n  /**if (dadGeneration < mumGeneration) {\n    kidGen = mumGeneration +1;\n    kidGen /= 2;\n  }\n  else if (dadGeneration > mumGeneration) {\n    kidGen = dadGeneration +1 ;\n    kidGen /= 2;\n  }\n  else {\n    kidGen = mumGeneration + 1;\n  }*/\n\n  // Create the new kitty (with breeder becoming new kitties owner)\n  uint256 newKittyId = _createKitty(_mumId, _dadId, newDna, kidGen, msg.sender);\n  return newKittyId;\n\n}\n\nfunction _mixDna(uint256 _dadDna, uint256 _mumDna) internal view returns(uint256) {\n  //uint256 firstHalf = _dadDna /100000000;\n  //uint256 secondhalf = _mumDna % 100000000;\n  //uint256 newDna = firstHalf * 100000000;\n  //newDna += secondhalf;\n  //emit event DNA\n  //emit NewDnaCreated(newDna);\n  //return newDna;\n  uint256[8] memory geneArray;\n  uint256 index = 8;\n  uint8 random = uint8(now.mod(256));// binary between 00000000-11111111;\n  //Create a gene Array (for each 2 digit pair of the 16 digit dna)\n  uint256 i;// lets say Random number is 11001011\n  for ( i = 1; i <= 128; i = i.mul(2) ){\n    index = index.sub(1) ; // move back one 2-digit pair\n    //DNA 16 digits\n    if(random & i != 0){\n      geneArray[index] = uint8(_mumDna.mod(100));\n    }\n    else {\n      geneArray[index] = uint8(_dadDna.mod(100));\n    }\n    _mumDna = _mumDna.div(100);\n    _dadDna = _dadDna.div(100);\n\n    //1,2,4,8,16,32,64, 128\n    //00000001 - 1\n    //00000010 - 2\n    //00000100 -  4\n    //00001000 - 8\n    //00010000 - 16\n    //00100000 - 32\n    //10000000 - 64\n    //10000000 - 128;\n    /* if (true && false)\n    11001011\n    &\n    00000001 = 1 // Keep checking all numbers against 11001011\n    if(1) then mum _genes\n    if(0) then dad _genes */\n  }\n  assert(index == 0);\n  assert(geneArray.length == 8);\n\n  uint256 dnaSequence;\n  // [ 11, 22, 33, 44,55 ,66, 77, 88]\n  for (i = 0; i < 8; i ++) {\n    dnaSequence = dnaSequence.add(geneArray[i]);\n    if(i != 7) {\n      dnaSequence = dnaSequence.mul(100);\n    }\n  }\n  return dnaSequence;\n}\n\n\nfunction _createKitty (\n  uint256 _mumId,\n  uint256 _dadId,\n  uint256 _genes,\n  uint256 _generation,\n  address _owner\n) private returns(uint256) {\n\n  Cat memory _cat = Cat({\n    genes : _genes,\n    birthTime : uint64(now),\n    mumId : uint32(_mumId),\n    dadId : uint32(_dadId),\n    generation : uint16(_generation)\n  });\n\n  uint256 newKittenId = (cats.push(_cat)).sub(1);\n\n  //Event Birth to  be emitted :\n  emit Birth(_owner, _genes, newKittenId, _mumId, _dadId, _generation);\n\n  _safeTransfer(address(0), _owner, newKittenId, \"\");\n  return newKittenId;\n}\n\n\nfunction getKitty(uint256 _newKittenId) public view returns(\nuint256 _genes,\nuint256 _mumId,\nuint256 _dadId,\nuint256 _birthTime,\nuint256 _generation){\n\n  require(_isInExistance(_newKittenId), \"No such kitty id!\");\n  Cat storage cat = cats[_newKittenId];\n  _genes = cat.genes;\n  _dadId = uint256(cat.dadId);\n  _mumId = uint256(cat.mumId);\n  _generation = uint256(cat.generation);\n  _birthTime = uint256(cat.birthTime);\n\n\n}\n\nfunction getKittyByOwner(address _owner) external view returns(uint256[] memory) {\n  /**uint256[] memory result = new uint256[](tokenOwnershipCount[_owner]);\n  uint counter = 0;\n  for (uint i = 0; i < cats.length; i ++) {\n    if (ownershipCertificate[i] == _owner) {\n      result[counter] = i;\n      counter ++;\n    }\n  }*/\n  // Set pointer to owners array of kitty Ids\n  return _ownersKittyIds[_owner];\n}\n\nfunction balanceOf(address owner) external view returns (uint256 balance) {\n  return tokenOwnershipCount[owner];\n}\n\nfunction totalSupply() public view returns (uint256 total) {\n  total = cats.length;\n  return total;\n}\n\nfunction name() external view returns (string memory tokenName) {\n  tokenName = Name;\n  return tokenName;\n}\n\n\nfunction symbol() external view returns (string memory tokenSymbol) {\n  tokenSymbol = Symbol;\n  return tokenSymbol;\n}\n\nfunction ownerOf(uint256 tokenId) external view returns (address owner) {\n  require(_isInExistance(tokenId), \"Token does not exist!\");\n  return ownershipCertificate[tokenId];\n}\n\n//##########################################################################################################\n\n\n// APPROVE FUNCTION & GETTER FUNCTIONS RELATED TO APPROVALS :\n//______________________________________________________________________________________\nfunction approve(address to, uint256 tokenId) external {\n  require(_isInExistance(tokenId), \"No such kitty id!\");//Token must exist\n  require(_isOwner(msg.sender, tokenId) || _isOperator(ownershipCertificate[tokenId], msg.sender),\"Not token owner, nor operator!\");\n  require( to != address(0), \"0 address cannot be approved !\");\n  _approve(msg.sender, to, tokenId);\n}\n\nfunction _approve(address grantor, address _approved, uint _tokenId ) internal {\n  _approved = kittyIndexToApprove[_tokenId];\n  //emit event Approve\n  emit Approval(grantor, _approved, _tokenId);\n\n}\n\nfunction getApproved(uint256 _tokenId) external view returns (address) {\n  require(_isInExistance(_tokenId), \"No such kitty id!\");//Token must exist\n  return kittyIndexToApprove[_tokenId];\n}\n//_______________________________________________________________________________________\n\nfunction setApprovalForAll(address operator, bool approved) external {\n  require(operator != msg.sender, \"Operator cannot be msg.sender\");\n  _setApprovalForAll(msg.sender, operator, approved);\n}\n\nfunction _setApprovalForAll(address _owner, address _operator, bool _approved) internal {\n  _operatorApprovals[_owner][_operator] = _approved;\n  //emit event ApproveAll\n  emit ApproveForAll(msg.sender, _operator, _approved);\n}\n\n\nfunction isApprovedForAll(address owner, address operator) external view returns (bool) {\n  return  _isOperator(owner, operator);\n}\n//_______________________________________________________________________________________________\n\nfunction isApprovedOrOwner(address _spender, address _from, address _to, uint256 _tokenId) internal view returns(bool) {\n  require(_to != address(0), \"Cannot approve address(0)\");\n  require(_isOwner(_from, _tokenId), \"Sender is not token owner!\");\n  require(_isInExistance(_tokenId), \"No such kitty id!\");//Token must exist\n  return (_isOwner(_spender, _tokenId) || _isApprovedFor(_spender, _tokenId) || _isOperator(ownershipCertificate[_tokenId], _spender));\n}\n\n\nfunction _isOwner(address claimant, uint256 tokenId) internal view returns (bool)  {\n    return (ownershipCertificate[tokenId] == claimant);\n}\n\n\nfunction _isApprovedFor(address _candidate, uint256 _tokenId) internal view returns(bool) {\n  return kittyIndexToApprove[_tokenId] == _candidate;\n}\n\nfunction _isOperator(address owner, address candidate) internal view returns (bool){\n    return _operatorApprovals[owner][candidate];\n}\n\n\nfunction _isInExistance(uint256 tokenId) internal view returns (bool)  {\n    return (tokenId < cats.length);\n    }\n\n//#######################################################################################################\n\n// INTERNAL FUNCTION ASKING FOR ERC 721 SUPPORT  :\nfunction _checkERC721Support(address _from, address _to, uint256 _tokenId, bytes memory _data) internal returns(bool) {\n  if ( !_isContract(_to) ) {\n    return true;\n  }\n  bytes4 returnData = IERC721Receiver(_to).onERC721Received(msg.sender, _from, _tokenId, _data);\n  // Call on onERC721Received in the _to contract\n  return returnData == MAGIC_ERC721_RECEIVED;\n  // Check on Return Value;\n}\n\n// IF SIZE = O =>ITS A USER WALLET, IF > 0 => ITS A CONTRACT :\nfunction _isContract(address _to) internal view returns(bool) {\n  uint32 size;\n  assembly{\n    size := extcodesize(_to)\n  }\n  return size > 0;\n}\n\n\n}\n",
  "sourcePath": "/Users/aadyakalra/Documents/Ethereum-course-advanced/CryptoKitties1/contracts/Kittycontract.sol",
  "compiler": {
    "name": "solc",
    "version": "0.5.12+commit.7709ece9.Emscripten.clang"
  },
  "schemaVersion": "3.4.1",
  "updatedAt": "2021-12-17T15:01:20.202Z",
  "networkType": "ethereum",
  "devdoc": {
    "methods": {}
  },
  "userdoc": {
    "methods": {}
  }
}