{
  "contractName": "KittyMarketPlace",
  "abi": [
    {
      "inputs": [
        {
          "internalType": "address",
          "name": "kittyContractAddress",
          "type": "address"
        }
      ],
      "payable": false,
      "stateMutability": "nonpayable",
      "type": "constructor"
    },
    {
      "anonymous": false,
      "inputs": [
        {
          "indexed": false,
          "internalType": "string",
          "name": "TxType",
          "type": "string"
        },
        {
          "indexed": false,
          "internalType": "address",
          "name": "owner",
          "type": "address"
        },
        {
          "indexed": false,
          "internalType": "uint256",
          "name": "tokenId",
          "type": "uint256"
        }
      ],
      "name": "MarketTransaction",
      "type": "event"
    },
    {
      "constant": true,
      "inputs": [],
      "name": "getContractOwner",
      "outputs": [
        {
          "internalType": "address",
          "name": "",
          "type": "address"
        }
      ],
      "payable": false,
      "stateMutability": "view",
      "type": "function"
    },
    {
      "constant": false,
      "inputs": [
        {
          "internalType": "address",
          "name": "kittyContractAddress",
          "type": "address"
        }
      ],
      "name": "setKittyContract",
      "outputs": [],
      "payable": false,
      "stateMutability": "nonpayable",
      "type": "function"
    },
    {
      "constant": true,
      "inputs": [
        {
          "internalType": "uint256",
          "name": "_tokenId",
          "type": "uint256"
        }
      ],
      "name": "getOffer",
      "outputs": [
        {
          "internalType": "address",
          "name": "seller",
          "type": "address"
        },
        {
          "internalType": "uint256",
          "name": "price",
          "type": "uint256"
        },
        {
          "internalType": "uint256",
          "name": "index",
          "type": "uint256"
        },
        {
          "internalType": "uint256",
          "name": "tokenId",
          "type": "uint256"
        },
        {
          "internalType": "bool",
          "name": "active",
          "type": "bool"
        }
      ],
      "payable": false,
      "stateMutability": "view",
      "type": "function"
    },
    {
      "constant": false,
      "inputs": [
        {
          "internalType": "uint256",
          "name": "_price",
          "type": "uint256"
        },
        {
          "internalType": "uint256",
          "name": "_tokenId",
          "type": "uint256"
        }
      ],
      "name": "setOffer",
      "outputs": [],
      "payable": false,
      "stateMutability": "nonpayable",
      "type": "function"
    },
    {
      "constant": true,
      "inputs": [],
      "name": "getAllTokenOnSale",
      "outputs": [
        {
          "internalType": "uint256[]",
          "name": "",
          "type": "uint256[]"
        }
      ],
      "payable": false,
      "stateMutability": "view",
      "type": "function"
    },
    {
      "constant": false,
      "inputs": [
        {
          "internalType": "uint256",
          "name": "_tokenId",
          "type": "uint256"
        }
      ],
      "name": "removeOffer",
      "outputs": [],
      "payable": false,
      "stateMutability": "nonpayable",
      "type": "function"
    },
    {
      "constant": false,
      "inputs": [
        {
          "internalType": "uint256",
          "name": "_tokenId",
          "type": "uint256"
        }
      ],
      "name": "buyKitty",
      "outputs": [],
      "payable": true,
      "stateMutability": "payable",
      "type": "function"
    },
    {
      "constant": true,
      "inputs": [
        {
          "internalType": "uint256",
          "name": "tokenId",
          "type": "uint256"
        }
      ],
      "name": "isTokenOnSale",
      "outputs": [
        {
          "internalType": "bool",
          "name": "",
          "type": "bool"
        }
      ],
      "payable": false,
      "stateMutability": "view",
      "type": "function"
    }
  ],
  "bytecode": "0x608060405234801561001057600080fd5b50604051611ad7380380611ad78339818101604052602081101561003357600080fd5b8101908080519060200190929190505050336000806101000a81548173ffffffffffffffffffffffffffffffffffffffff021916908373ffffffffffffffffffffffffffffffffffffffff1602179055506100938161009960201b60201c565b50610136565b6000809054906101000a900473ffffffffffffffffffffffffffffffffffffffff1673ffffffffffffffffffffffffffffffffffffffff163373ffffffffffffffffffffffffffffffffffffffff16146100f257600080fd5b80600160006101000a81548173ffffffffffffffffffffffffffffffffffffffff021916908373ffffffffffffffffffffffffffffffffffffffff16021790555050565b611992806101456000396000f3fe60806040526004361061007b5760003560e01c8063941b055b1161004e578063941b055b1461022f578063951fbdf01461027457806395a0f9c7146102c7578063ae5310f6146103025761007b565b8063442890d5146100805780634579268a146100d757806349b3709f1461017257806362b7f94e146101de575b600080fd5b34801561008c57600080fd5b50610095610330565b604051808273ffffffffffffffffffffffffffffffffffffffff1673ffffffffffffffffffffffffffffffffffffffff16815260200191505060405180910390f35b3480156100e357600080fd5b50610110600480360360208110156100fa57600080fd5b8101908080359060200190929190505050610359565b604051808673ffffffffffffffffffffffffffffffffffffffff1673ffffffffffffffffffffffffffffffffffffffff168152602001858152602001848152602001838152602001821515151581526020019550505050505060405180910390f35b34801561017e57600080fd5b506101876104ad565b6040518080602001828103825283818151815260200191508051906020019060200280838360005b838110156101ca5780820151818401526020810190506101af565b505050509050019250505060405180910390f35b3480156101ea57600080fd5b5061022d6004803603602081101561020157600080fd5b81019080803573ffffffffffffffffffffffffffffffffffffffff16906020019092919050505061062e565b005b34801561023b57600080fd5b506102726004803603604081101561025257600080fd5b8101908080359060200190929190803590602001909291905050506106cb565b005b34801561028057600080fd5b506102ad6004803603602081101561029757600080fd5b8101908080359060200190929190505050610b36565b604051808215151515815260200191505060405180910390f35b3480156102d357600080fd5b50610300600480360360208110156102ea57600080fd5b8101908080359060200190929190505050610b48565b005b61032e6004803603602081101561031857600080fd5b8101908080359060200190929190505050610d34565b005b60008060009054906101000a900473ffffffffffffffffffffffffffffffffffffffff16905090565b60008060008060008073ffffffffffffffffffffffffffffffffffffffff166002600088815260200190815260200160002060000160009054906101000a900473ffffffffffffffffffffffffffffffffffffffff1673ffffffffffffffffffffffffffffffffffffffff161415610439576040517f08c379a00000000000000000000000000000000000000000000000000000000081526004018080602001828103825260138152602001807f546f6b656e206e6f74206f6e206f66666572210000000000000000000000000081525060200191505060405180910390fd5b60006002600088815260200190815260200160002090508060000160009054906101000a900473ffffffffffffffffffffffffffffffffffffffff168160010154826002015483600301548460040160009054906101000a900460ff16849450955095509550955095505091939590929450565b6060600060038054905090506060816040519080825280602002602001820160405280156104ea5781602001602082028038833980820191505090505b50905060008060009050600091505b8382101561059457600115156003838154811061051257fe5b906000526020600020906005020160040160009054906101000a900460ff1615151415610587576003828154811061054657fe5b90600052602060002090600502016003015483828151811061056457fe5b60200260200101818152505061058460018261115f90919063ffffffff16565b90505b81806001019250506104f9565b838114156105a8578294505050505061062b565b6060816040519080825280602002602001820160405280156105d95781602001602082028038833980820191505090505b509050600092505b81831015610622578383815181106105f557fe5b602002602001015181848151811061060957fe5b60200260200101818152505082806001019350506105e1565b80955050505050505b90565b6000809054906101000a900473ffffffffffffffffffffffffffffffffffffffff1673ffffffffffffffffffffffffffffffffffffffff163373ffffffffffffffffffffffffffffffffffffffff161461068757600080fd5b80600160006101000a81548173ffffffffffffffffffffffffffffffffffffffff021916908373ffffffffffffffffffffffffffffffffffffffff16021790555050565b6106d533826111e7565b61072a576040517f08c379a00000000000000000000000000000000000000000000000000000000081526004018080602001828103825260218152602001806118336021913960400191505060405180910390fd5b610733816112cd565b15610789576040517f08c379a00000000000000000000000000000000000000000000000000000000081526004018080602001828103825260558152602001806118e06055913960600191505060405180910390fd5b600160009054906101000a900473ffffffffffffffffffffffffffffffffffffffff1673ffffffffffffffffffffffffffffffffffffffff1663e985e9c533306040518363ffffffff1660e01b8152600401808373ffffffffffffffffffffffffffffffffffffffff1673ffffffffffffffffffffffffffffffffffffffff1681526020018273ffffffffffffffffffffffffffffffffffffffff1673ffffffffffffffffffffffffffffffffffffffff1681526020019250505060206040518083038186803b15801561085c57600080fd5b505afa158015610870573d6000803e3d6000fd5b505050506040513d602081101561088657600080fd5b81019080805190602001909291905050506108ec576040517f08c379a000000000000000000000000000000000000000000000000000000000815260040180806020018281038252604b815260200180611895604b913960600191505060405180910390fd5b6108f46117eb565b6040518060a001604052803373ffffffffffffffffffffffffffffffffffffffff16815260200184815260200160038054905081526020018381526020016001151581525090506003819080600181540180825580915050906001820390600052602060002090600502016000909192909190915060008201518160000160006101000a81548173ffffffffffffffffffffffffffffffffffffffff021916908373ffffffffffffffffffffffffffffffffffffffff16021790555060208201518160010155604082015181600201556060820151816003015560808201518160040160006101000a81548160ff021916908315150217905550505050806002600084815260200190815260200160002060008201518160000160006101000a81548173ffffffffffffffffffffffffffffffffffffffff021916908373ffffffffffffffffffffffffffffffffffffffff16021790555060208201518160010155604082015181600201556060820151816003015560808201518160040160006101000a81548160ff0219169083151502179055509050507fd99e4fad9ad6313b1feb588fa8e605e3a9873172f2024330c35dd2b4041a4386338360405180806020018473ffffffffffffffffffffffffffffffffffffffff1673ffffffffffffffffffffffffffffffffffffffff1681526020018381526020018281038252600c8152602001807f437265617465204f666665720000000000000000000000000000000000000000815250602001935050505060405180910390a1505050565b6000610b41826112cd565b9050919050565b60011515610b55826112cd565b151514610bad576040517f08c379a00000000000000000000000000000000000000000000000000000000081526004018080602001828103825260298152602001806119356029913960400191505060405180910390fd5b6002600082815260200190815260200160002060000160009054906101000a900473ffffffffffffffffffffffffffffffffffffffff1673ffffffffffffffffffffffffffffffffffffffff163373ffffffffffffffffffffffffffffffffffffffff1614610c84576040517f08c379a000000000000000000000000000000000000000000000000000000000815260040180806020018281038252601c8152602001807f4f6e6c792053656c6c65722063616e2052656d6f7665204f666665720000000081525060200191505060405180910390fd5b610c8d81611301565b7fd99e4fad9ad6313b1feb588fa8e605e3a9873172f2024330c35dd2b4041a4386338260405180806020018473ffffffffffffffffffffffffffffffffffffffff1673ffffffffffffffffffffffffffffffffffffffff1681526020018381526020018281038252600c8152602001807f52656d6f7665204f666665720000000000000000000000000000000000000000815250602001935050505060405180910390a150565b610d3c6117eb565b600260008381526020019081526020016000206040518060a00160405290816000820160009054906101000a900473ffffffffffffffffffffffffffffffffffffffff1673ffffffffffffffffffffffffffffffffffffffff1673ffffffffffffffffffffffffffffffffffffffff1681526020016001820154815260200160028201548152602001600382015481526020016004820160009054906101000a900460ff161515151581525050905060011515610df8836112cd565b151514610e50576040517f08c379a00000000000000000000000000000000000000000000000000000000081526004018080602001828103825260418152602001806118546041913960600191505060405180910390fd5b8060200151341015610eca576040517f08c379a000000000000000000000000000000000000000000000000000000000815260040180806020018281038252601c8152602001807f506c656173652073656e642046756c6c20546f6b656e2050726963650000000081525060200191505060405180910390fd5b610ed382611301565b6000341115610fbe576000816000015173ffffffffffffffffffffffffffffffffffffffff163460405180600001905060006040518083038185875af1925050503d8060008114610f40576040519150601f19603f3d011682016040523d82523d6000602084013e610f45565b606091505b5050905080610fbc576040517f08c379a00000000000000000000000000000000000000000000000000000000081526004018080602001828103825260198152602001807f5061796d656e7420746f2073656c6c6572206661696c6564210000000000000081525060200191505060405180910390fd5b505b600160009054906101000a900473ffffffffffffffffffffffffffffffffffffffff1673ffffffffffffffffffffffffffffffffffffffff166342842e0e826000015133856040518463ffffffff1660e01b8152600401808473ffffffffffffffffffffffffffffffffffffffff1673ffffffffffffffffffffffffffffffffffffffff1681526020018373ffffffffffffffffffffffffffffffffffffffff1673ffffffffffffffffffffffffffffffffffffffff1681526020018281526020019350505050600060405180830381600087803b15801561109f57600080fd5b505af11580156110b3573d6000803e3d6000fd5b505050507fd99e4fad9ad6313b1feb588fa8e605e3a9873172f2024330c35dd2b4041a4386338360405180806020018473ffffffffffffffffffffffffffffffffffffffff1673ffffffffffffffffffffffffffffffffffffffff168152602001838152602001828103825260038152602001807f4275790000000000000000000000000000000000000000000000000000000000815250602001935050505060405180910390a15050565b6000808284019050838110156111dd576040517f08c379a000000000000000000000000000000000000000000000000000000000815260040180806020018281038252601b8152602001807f536166654d6174683a206164646974696f6e206f766572666c6f77000000000081525060200191505060405180910390fd5b8091505092915050565b60008273ffffffffffffffffffffffffffffffffffffffff16600160009054906101000a900473ffffffffffffffffffffffffffffffffffffffff1673ffffffffffffffffffffffffffffffffffffffff16636352211e846040518263ffffffff1660e01b81526004018082815260200191505060206040518083038186803b15801561127357600080fd5b505afa158015611287573d6000803e3d6000fd5b505050506040513d602081101561129d57600080fd5b810190808051906020019092919050505073ffffffffffffffffffffffffffffffffffffffff1614905092915050565b6000600115156002600084815260200190815260200160002060040160009054906101000a900460ff161515149050919050565b6113096117eb565b600260008381526020019081526020016000206040518060a00160405290816000820160009054906101000a900473ffffffffffffffffffffffffffffffffffffffff1673ffffffffffffffffffffffffffffffffffffffff1673ffffffffffffffffffffffffffffffffffffffff1681526020016001820154815260200160028201548152602001600382015481526020016004820160009054906101000a900460ff161515151581525050905060006113d360016003805490506116e190919063ffffffff16565b905080826040015110156115f8576113e96117eb565b600382815481106113f657fe5b90600052602060002090600502016040518060a00160405290816000820160009054906101000a900473ffffffffffffffffffffffffffffffffffffffff1673ffffffffffffffffffffffffffffffffffffffff1673ffffffffffffffffffffffffffffffffffffffff1681526020016001820154815260200160028201548152602001600382015481526020016004820160009054906101000a900460ff161515151581525050905082604001518160400181815250508060038460400151815481106114c057fe5b906000526020600020906005020160008201518160000160006101000a81548173ffffffffffffffffffffffffffffffffffffffff021916908373ffffffffffffffffffffffffffffffffffffffff16021790555060208201518160010155604082015181600201556060820151816003015560808201518160040160006101000a81548160ff02191690831515021790555090505080600260008360600151815260200190815260200160002060008201518160000160006101000a81548173ffffffffffffffffffffffffffffffffffffffff021916908373ffffffffffffffffffffffffffffffffffffffff16021790555060208201518160010155604082015181600201556060820151816003015560808201518160040160006101000a81548160ff021916908315150217905550905050505b600380548061160357fe5b6001900381819060005260206000209060050201600080820160006101000a81549073ffffffffffffffffffffffffffffffffffffffff02191690556001820160009055600282016000905560038201600090556004820160006101000a81549060ff0219169055505090556002600083606001518152602001908152602001600020600080820160006101000a81549073ffffffffffffffffffffffffffffffffffffffff02191690556001820160009055600282016000905560038201600090556004820160006101000a81549060ff02191690555050505050565b600061172383836040518060400160405280601e81526020017f536166654d6174683a207375627472616374696f6e206f766572666c6f77000081525061172b565b905092915050565b60008383111582906117d8576040517f08c379a00000000000000000000000000000000000000000000000000000000081526004018080602001828103825283818151815260200191508051906020019080838360005b8381101561179d578082015181840152602081019050611782565b50505050905090810190601f1680156117ca5780820380516001836020036101000a031916815260200191505b509250505060405180910390fd5b5060008385039050809150509392505050565b6040518060a00160405280600073ffffffffffffffffffffffffffffffffffffffff168152602001600081526020016000815260200160008152602001600015158152509056fe596f7520617265206e6f7420746865206f776e6572206f662074686973204361745468697320436174206973206e6f7420666f722073616c65206173207468657265206973204e6f20416374697665204f6666657220616761696e737420746869734d61726b6574506c61636520436f6e7472616374206e6565647320746f20626520617574686f72697a656420666f722073656c6c696e67204b6974747920696e2074686520467574757265546865726520697320616c726561647920616e20416374697665204f6666657220666f7220746869732043617420736f20596f752063616e6e6f742073656c6c207468652073616d6520546f6b656e2074776963655468657265206973204e6f20416374697665204f6666657220616761696e7374207468697320436174a265627a7a72315820db49898578f1378497a95eed0e0f99032c504a89b1cb98a1d1d5607b3e7499fb64736f6c634300050c0032",
  "source": "pragma solidity 0.5.12;\n\nimport \"./Kittycontract.sol\";\nimport \"./IKittyMarketPlace.sol\";\nimport \"./utils/SafeMath.sol\";\nimport \"./Ownable.sol\";\n\n\ncontract KittyMarketPlace is IKittyMarketPlace,Ownable {\n\n  using SafeMath for uint256;\n\n\n\n  Kittycontract private _kittyContract;\n\n//events\nevent MarketTransaction(string TxType, address owner, uint256 tokenId);\n\n//Struct with Offer Details of the MarketPlace web app:\n  struct Offer {\n    address payable seller;\n    uint256 price;\n    uint256 index;\n    uint256 tokenId;\n    bool active;\n  }\n\n//Mapping tokenId =>  struct\nmapping (uint256 => Offer) tokenIdToOffer;\n\n//Offer array of available Offers;\nOffer[] offers;\n\n//Constructor :\nconstructor(address kittyContractAddress) public {\n  setKittyContract(kittyContractAddress);\n}\n\nfunction setKittyContract(address kittyContractAddress)\npublic onlyOwner {\n  _kittyContract = Kittycontract(kittyContractAddress);\n}\n\n\nfunction getOffer(uint256 _tokenId) public view returns\n(\n  address seller,\n  uint256 price,\n  uint256 index,\n  uint256 tokenId,\n  bool active\n) {\n\n  //require(_isOnOffer(_tokenId) == true, \"There is No Active Offer for this Cat\");\n  require(tokenIdToOffer[_tokenId].seller != address(0), \"Token not on offer!\");\n\n/** Below is One Method of assigning variables to Mappingwhich point to a Struct\n  seller = tokenIdToOffer[_tokenId].seller;\n  price = tokenIdToOffer[_tokenId].price;\n  index = tokenIdToOffer[_tokenId].index;\n  tokenId = tokenIdToOffer[_tokenId].tokenId;\n  active = tokenIdToOffer[_tokenId].active;\n*/\n  //another way of doing it (assigning directly to Struct + Mapping) is like below :\n\nOffer storage offer = tokenIdToOffer[_tokenId];\nreturn (\n  offer.seller,\n  offer.price,\n  offer.index,\n  offer.tokenId,\n  offer.active\n);\n\n}\n\n\nfunction setOffer(uint256 _price, uint256 _tokenId) external {\n  require(_isKittyOwner(msg.sender, _tokenId), \"You are not the owner of this Cat\");\n  require(!_isOnOffer(_tokenId), \"There is already an Active Offer for this Cat so You cannot sell the same Token twice\");\n  require(_kittyContract.isApprovedForAll(msg.sender, address(this)), \"MarketPlace Contract needs to be authorized for selling Kitty in the Future\");\n\nOffer memory newOffer = Offer({\n  seller : msg.sender,\n  price : _price,\n  tokenId : _tokenId,\n  index : offers.length,\n  active : true\n\n});\n\n offers.push(newOffer);\n tokenIdToOffer[_tokenId] = newOffer;\n\n//Emit Event MarketTransaction\nemit MarketTransaction(\"Create Offer\", msg.sender, _tokenId);\n}\n\n\nfunction getAllTokenOnSale() external view  returns(uint256[] memory ) {\n\n  uint256 totalOffers = offers.length;\n// Filip's way:\n  /**if (totalOffers == 0) {\n   return new uint256[](0);//SIZE 1,2,3,4,5,\n  }\n else {\n*/\n  uint256[] memory allOfferIds = new uint256[](totalOffers);\n  uint256 i;\n  uint256 activeOffers = 0;\n  for (i = 0; i < totalOffers; i++) {\n    if (offers[i].active == true) {\n      allOfferIds[activeOffers] = offers[i].tokenId;\n      activeOffers = activeOffers.add(1);\n    }\n  }\n\n  if (activeOffers == totalOffers) return allOfferIds;\n\n  //Else return a correctly sized array of only Active offers\n  uint256[] memory activeOfferIds = new uint[](activeOffers);\n  for (i = 0; i < activeOffers; i++ ) {\n    activeOfferIds[i] = allOfferIds[i];\n  }\nreturn activeOfferIds;\n\n//Continuation of Filip's way :\n  /**uint256[] memory result = new uint256[](totalOffers);\n  uint256 offerId;\n\n  for (offerId = 0; offerId < totalOffers; offerId ++) {\n    if(offers[offerId].active == true) {\n      result[offerId] = offers[offerId].tokenId;\n    }\n  }\n\n  return result;\n\n}*/\n}\n\n\n\nfunction removeOffer(uint256 _tokenId) external {\n  require(_isOnOffer(_tokenId) == true, \"There is No Active Offer against this Cat\");\n  require(msg.sender == tokenIdToOffer[_tokenId].seller, \"Only Seller can Remove Offer\");\n\n  _removeOffer(_tokenId);\n  // or We can use below two lines of code to ensure that the Offer is removed both from the Offer mapping i.e tokenIdToOffer and also from the offers array\n  //delete(tokenIdToOffer[_tokenId]);\n  //offers[tokenIdToOffer[_tokenId].index].active = false;\n\n\n  //Emit Market Transaction event\n  emit MarketTransaction(\"Remove Offer\", msg.sender, _tokenId);\n}\n\n\n\nfunction buyKitty(uint256 _tokenId) external payable {\n  Offer memory offer = tokenIdToOffer[_tokenId];\n  require(_isOnOffer(_tokenId) == true, \"This Cat is not for sale as there is No Active Offer against this\");\n  require(msg.value >= offer.price, \"Please send Full Token Price\");\n\n  // Delete the Mapping of the Tranferrable token\n  // Set the Bool= active as false in the Offer array as well\n  //delete(tokenIdToOffer[_tokenId]);\n  //offers[offer.index].active = false;\n  _removeOffer(_tokenId);\n  //transfer of the price to the seller\n  //PUSH METHOD\n  //if (offer.price > 0) {\n    //offer.seller.transfer(offer.price);\n  //IMPLEMENTED PULL METHOD AS BELOW\n  if(msg.value > 0) {\n    (bool success, ) = offer.seller.call.value(msg.value)(\"\");\n    require(success, \"Payment to seller failed!\");\n    }\n\n  //Finally transfer the Ownership of the Kitty using the transferFrom function in KittyContract:\n  _kittyContract.safeTransferFrom(offer.seller, msg.sender, _tokenId);\n\n  //Emit MarketTransaction event\n  emit MarketTransaction(\"Buy\", msg.sender, _tokenId);\n}\n\n\nfunction _isKittyOwner(address claimant,uint256 tokenId)\n    internal\n    view\n    returns (bool)\n{\n    return(_kittyContract.ownerOf(tokenId) == claimant);\n}\n\n\nfunction _isOnOffer(uint256 tokenId) internal view returns (bool) {\n    return(tokenIdToOffer[tokenId].active == true);\n}\n\n\n/* External Function:\n** Checks if given tokenId is on sale or not; returning true if it is, false if not.\n*/\nfunction isTokenOnSale(uint256 tokenId) external view returns (bool) {\n    return (_isOnOffer(tokenId));\n}\n\n\nfunction _removeOffer(uint256 tokenId) internal {\n    Offer memory toBeRemoved = tokenIdToOffer[tokenId];\n\n    uint256 lastIndex = offers.length.sub(1);\n    if (toBeRemoved.index < lastIndex) { // not the last offer in the array\n        // Move last offer record (in array) to overwrite the offer to be removed\n        Offer memory lastOffer = offers[lastIndex];\n        lastOffer.index = toBeRemoved.index;       // poisition to which last offer record will be moved\n        offers[toBeRemoved.index] = lastOffer;    // overwrite offer to be removed (with last offer record)\n        tokenIdToOffer[lastOffer.tokenId] = lastOffer; // Update record in the token mapping\n        }\n    offers.pop();   // remove last offer record (now redundant as moved, or is the offer to be removed)\n    delete tokenIdToOffer[toBeRemoved.tokenId];\n    }\n\n\n\n\n}\n",
  "sourcePath": "/Users/aadyakalra/Documents/Ethereum-course-advanced/CryptoKitties1/contracts/KittyMarketPlace.sol",
  "compiler": {
    "name": "solc",
    "version": "0.5.12+commit.7709ece9.Emscripten.clang"
  },
  "schemaVersion": "3.4.1",
  "updatedAt": "2021-12-17T15:01:20.215Z",
  "networkType": "ethereum",
  "devdoc": {
    "methods": {}
  },
  "userdoc": {
    "methods": {}
  }
}