{
  "contractName": "Ownable",
  "abi": [
    {
      "inputs": [],
      "payable": false,
      "stateMutability": "nonpayable",
      "type": "constructor"
    },
    {
      "constant": true,
      "inputs": [],
      "name": "getContractOwner",
      "outputs": [
        {
          "internalType": "address",
          "name": "",
          "type": "address"
        }
      ],
      "payable": false,
      "stateMutability": "view",
      "type": "function"
    }
  ],
  "bytecode": "0x608060405234801561001057600080fd5b50336000806101000a81548173ffffffffffffffffffffffffffffffffffffffff021916908373ffffffffffffffffffffffffffffffffffffffff16021790555060d38061005f6000396000f3fe6080604052348015600f57600080fd5b506004361060285760003560e01c8063442890d514602d575b600080fd5b60336075565b604051808273ffffffffffffffffffffffffffffffffffffffff1673ffffffffffffffffffffffffffffffffffffffff16815260200191505060405180910390f35b60008060009054906101000a900473ffffffffffffffffffffffffffffffffffffffff1690509056fea265627a7a72315820f5930b093c43e2edc1d817c5fb4c1b619266a193175bdf13eeecdd2f69f7dc8964736f6c634300050c0032",
  "source": "pragma solidity 0.5.12;\n\ncontract Ownable {\n    address internal _contractOwner;\n\n    modifier onlyOwner() {\n        require(msg.sender == _contractOwner);\n        _; //Continue execution\n    }\n\n    constructor() public {\n        _contractOwner = msg.sender;\n    }\n\n    function getContractOwner() public view returns (address) {\n        return _contractOwner;\n    }\n}\n",
  "sourcePath": "/Users/aadyakalra/Documents/Ethereum-course-advanced/CryptoKitties1/contracts/Ownable.sol",
  "compiler": {
    "name": "solc",
    "version": "0.5.12+commit.7709ece9.Emscripten.clang"
  },
  "schemaVersion": "3.0.16",
  "updatedAt": "2021-06-23T14:03:10.745Z",
  "devdoc": {
    "methods": {}
  },
  "userdoc": {
    "methods": {}
  }
}